:10000000A8C00000C5C00000C3C00000C1C00000FF
:10001000BFC00000BDC00000BBC00000B9C00000F0
:10002000B7C00000B5C000005EC60000B1C000004F
:10003000AFC00000ADC00000ABC00000A9C0000010
:10004000A7C00000A5C00000A3C00000A1C0000020
:100050009FC000009DC000009BC0000099C0000030
:1000600097C0000095C0000093C0000091C0000040
:100070008FC000008DC000008BC0000089C0000050
:1000800087C0000085C0000083C0000081C0000060
:100090007FC000007DC0000026034C0055004600D4
:1000A000410020004B006500790062006F00610094
:1000B000720064002000440065006D006F000000C5
:1000C00018034400650061006E00200043006100D9
:1000D0006D0065007200610000000403090409025C
:1000E0002200010100C032090400000103010100E7
:1000F00009211101000122400007058103080005C4
:100100001201100100000008EB034220010001026F
:10011000000105010906A101050719E029E71500FD
:100120002501750195088102950175088101050871
:100130001901290595057501910295017503910134
:10014000150026FF000507190029FF95067508818F
:1001500000C011241FBECFEFD0E2DEBFCDBF11E043
:10016000A0E0B1E0EEE1F3E100E00BBF02C00790D8
:100170000D92A031B107D9F721E0A0E1B1E001C0B3
:100180001D92A532B207E1F70E94ED080C948D098B
:1001900037CF292F332723303105C9F038F42130E8
:1001A000310559F02230310569F035C02132310571
:1001B00041F12232310551F12EC082E190E020E080
:1001C00031E032C082E290E02EED30E02DC0992780
:1001D0008130910551F018F0029769F021C0EAEDE5
:1001E000F0E0849190E09F011FC0E0ECF0E084918A
:1001F00090E09F0119C0E8E9F0E0849190E09F0150
:1002000013C089E090E020EF30E00EC080E490E081
:1002100022E131E009C080E090E020E030E004C05D
:1002200080E090E020E030E0FA01318320830895FF
:100230003F924F925F926F927F928F929F92AF9276
:10024000BF92CF92DF92EF92FF920F931F93CF93C3
:10025000DF9300D01F92CDB7DEB76C01EDB6FEB6CE
:100260008091E80083FF14C1F601808190E0209125
:100270002101309122012817390709F009C1809125
:100280001E01833009F4A1C030F4813071F0823056
:1002900009F4E3C0FDC08A3009F4C3C08B3009F40F
:1002A000ACC0893009F0F4C052C080911D01813A80
:1002B00009F0EEC0ADB6BEB61A821982EDE1F1E0EA
:1002C000828113818B83F6018085482F50E08DB7A2
:1002D0009EB7841B950B0FB6F8949EBF0FBE8DBFC3
:1002E000EDB7FEB731964F0160E070E0CF010E949C
:1002F00086094FEF410F8E010F5F1F4F9401BE0122
:100300006D5F7F4FC601ABD7F6018681978100975D
:1003100021F0408550E0B401F0D71092E900E8EEFA
:10032000F0E08081877F80838B8181118093F10051
:1003300069817A81C401F4D1E8EEF0E080818B77A5
:1003400080830FB6F894BEBE0FBEADBEA1C0809133
:100350001D01813209F09CC06DB67EB6EDE1F1E081
:1003600006811781528043808DB79EB7801B910B09
:100370000FB6F8949EBF0FBE8DBFEDB7FEB7319696
:100380004F010F2EF8EEAF2EB12CF02DF50180812C
:10039000877F8083B801C40142D2F50180818E77C6
:1003A000808321E0511001C020E030E0021B130BDC
:1003B000280D391D4FEF440D652DC6017CD70FB6B2
:1003C000F8947EBE0FBE6DBE63C080911D01813A60
:1003D00009F05EC0E8EEF0E08081877F8083808155
:1003E00080FFFDCFF60181858093F100E8EEF0E01B
:1003F00080818E778083B1D34BC080911D01813283
:1004000009F046C0E8EEF0E08081877F8083A5D3C5
:1004100090911F0181E0911101C080E0F601818778
:1004200037C080911D01813299F5E8EEF0E08081BE
:10043000877F808392D380911F019091200188272C
:100440000024880F991F001C880F991F001C892FFA
:10045000902DF601958784871BC080911D01813AFC
:10046000B9F4E8EEF0E08081877F8083808180FFAF
:10047000FDCFF60184859585969587959695879508
:100480008093F100E8EEF0E080818E77808365D381
:100490000FB6F894FEBE0FBEEDBE0F900F900F90FA
:1004A000DF91CF911F910F91FF90EF90DF90CF9050
:1004B000BF90AF909F908F907F906F905F904F9084
:1004C0003F900895FC01399627E0DF011D922A959F
:1004D000E9F721E0FC01218724EF31E0358724870B
:1004E00023E0248361E00196E9C208955F926F9250
:1004F0007F928F929F92AF92BF92CF92DF92EF92B4
:10050000FF920F931F93CF93DF9300D01F92CDB72D
:10051000DEB77C01ADB6BEB680911C01843009F017
:100520008AC08091E4009091E500F701228533852F
:100530002817390709F47FC081818F708093E90003
:100540008091E80085FF77C08DB69EB6408550E06B
:100550008DB79EB7841B950B0FB6F8949EBF0FBE48
:100560008DBFEDB7FEB731966F011B821A821982DB
:1005700060E070E0CF01CAD68E010F5F1F4F960179
:1005800040E0BE016D5F7F4FC70169D6582EF7016D
:1005900084859585892B41F081E026853785232B3D
:1005A00009F080E0782E01C0712CF70106811781D7
:1005B0000115110589F049815A81B801C60190D60B
:1005C00066246394892B09F4612CF701408550E07F
:1005D000B601C80192D601C0612C89819A81892B0C
:1005E000F1F0511004C0611002C070FE18C0F70194
:1005F000848595859787868781818F708093E900B0
:100600008B8181118093F10069817A8140E050E013
:10061000C60129D0E8EEF0E080818E77808380915A
:10062000E4009091E500F701938782870FB6F89474
:100630009EBE0FBE8DBE0FB6F894BEBE0FBEADBE41
:100640000F900F900F90DF91CF911F910F91FF901E
:10065000EF90DF90CF90BF90AF909F908F907F9062
:100660006F905F9008958F929F92AF92BF92CF92BA
:10067000DF92EF92FF920F931F93CF93DF938C0142
:10068000EB015A018ED281113EC0A114B10439F0A0
:10069000F50180819181C81BD90B080F191F209784
:1006A00089F1E12CF12C0F2EF8EE8F2E912CF02DEC
:1006B0000F2EF1EFCF2ED12CF02DF401808185FD8E
:1006C00014C080818E7780834BD5A114B10449F08A
:1006D000F50180819181E80EF91EF182E08285E0CA
:1006E00012C05FD2882351F00EC0F80181918F01B2
:1006F000F60180832197FFEFEF1AFF0A2097E9F6B2
:1007000080E001C080E0DF91CF911F910F91FF90B9
:10071000EF90DF90CF90BF90AF909F908F90089513
:10072000EF92FF920F931F93CF93DF9320912301BA
:10073000309124012617370758F06115710539F4F7
:10074000E8EEF0E020812E7720839B0101C09B0121
:10075000A82FB92F90E0E8EEF0E062EF70E00F2EE6
:10076000F1EFEF2EF12CF02D11E000E02FC0809181
:100770001C01882309F441C0853009F440C0808100
:1007800083FD3FC0808182FD31C0808180FF1EC01B
:10079000EB01488159812115310581F0483051051F
:1007A00068F48D91E7018883215031094F5F5F4FD5
:1007B0002115310519F04830510599F7912F48302E
:1007C000510509F0902F80818E77808321153105A6
:1007D00071F69111CCCF0AC080911C01882399F049
:1007E000853099F0808183FF03C011C0E8EEF0E00E
:1007F000808182FFF1CF80E00BC082E009C083E0FE
:1008000007C081E005C082E003C083E001C081E051
:10081000DF91CF911F910F91FF90EF900895CF93AB
:10082000DF936115710539F5E8EEF0E080818B7793
:1008300080833DC080911C01882309F43FC085302E
:1008400009F43EC0808183FD3DC0808182FFF2CFEC
:1008500045C0E90188818D936150710929F0EA0151
:1008600088819981892BA9F780818B778083611595
:10087000710549F41CC0A82FB92FE8EEF0E042EF53
:1008800050E021EF30E080911C018823E9F08530B1
:10089000E9F0808183FD1CC0808182FD1FC0CACF2A
:1008A00080911C018823B1F0853019F415C0E8EE61
:1008B000F0E0808180FFF4CF80E017C082E015C0B7
:1008C00083E013C081E011C082E00FC083E00DC05F
:1008D00081E00BC082E009C083E007C0EA018881A3
:1008E0009981892B09F0B5CFBFCFDF91CF910895C2
:1008F000EF92FF920F931F93CF93DF9320912301E9
:10090000309124012617370758F06115710539F425
:10091000E8EEF0E020812E7720839B0101C09B014F
:10092000E82FF92F90E0A8EEB0E062EF70E00F2E14
:10093000F1EFEF2EF12CF02D11E000E030C08091AE
:100940001C01882309F442C0853009F441C08C9110
:1009500083FD40C08C9182FD32C08C9180FF1FC00E
:10096000EB01488159812115310589F04830510545
:1009700070F48491E70188833196215031094F5FEB
:100980005F4F2115310519F04830510591F7912F2E
:100990004830510509F0902F8C918E778C9321155A
:1009A000310569F69111CBCF0AC080911C018823D3
:1009B00099F0853099F0808183FF03C011C0E8EE83
:1009C000F0E0808182FFF1CF80E00BC082E009C0BF
:1009D00083E007C081E005C082E003C083E001C07E
:1009E00081E0DF91CF911F910F91FF90EF900895DB
:1009F0008F929F92BF92CF92DF92EF92FF920F93CE
:100A00001F93CF93DF93873070F126C0292F2F706B
:100A1000E7012883891731F0E80178812081E4011A
:100A2000588103C0242F762F5B2D21FF12C03C91EB
:100A30003E7F3C9330813D7F30833C9131603C93DD
:100A4000E80178832083E4015883E601288122238A
:100A500044F49F5F9730D1F68F708093E90081E076
:100A600021C080E01FC0982F9F709093E900982FBD
:100A7000242F762F50E0ABEEB0E0EDEEF0E00CEE80
:100A800010E00F2EF0EF8F2E912CF02D0F2EFEEE9A
:100A9000CF2ED12CF02D0F2EF9EEEF2EF12CF02DC4
:100AA000B12CC3CFDF91CF911F910F91FF90EF90A9
:100AB000DF90CF90BF909F908F900895EF92FF921C
:100AC0000F931F93CF93DF936623E9F1062FC82F6F
:100AD000D92F10E00F2EF6E0FF2EF02D6894EE24B3
:100AE000E1F85881552349F19C81E981FA816B81B4
:100AF000852F8F70873048F5923010F44E2D01C04D
:100B00004F2DE930F10550F028E030E090E09F5F94
:100B1000220F331F2E173F07D0F301C090E09295AC
:100B2000907F492B90E4699FB0011124551F5527F0
:100B3000551F652B5DDF882349F01F5F2596011344
:100B4000D0CF81E003C081E001C080E0DF91CF9190
:100B50001F910F91FF90EF90089580911D018823C0
:100B600044F0E8EEF0E014C080911C01811103C054
:100B70000895E8EEF0E0808182FFF6CFE8EEF0E045
:100B800080818B778083089580911C01882341F0B8
:100B9000808180FFF9CFE8EEF0E080818E7780835E
:100BA00008950F931F93CF93DF932091E40030912A
:100BB000E50065E6ACEEB0E0E8EEF0E00BEE10E04C
:100BC00044EE50E001C09C019C91892F817090FD02
:100BD0001DC020C080911C01882381F0853081F0E8
:100BE000E801888185FD0EC0EA0188819981281776
:100BF000390751F3615039F784E00FC082E00DC02E
:100C000083E00BC081E009C080E007C0808180FFE5
:100C1000E1CFFACF908192FFDDCFDF91CF911F918D
:100C20000F9108950F931F93CF93DF934FD056D01A
:100C3000C8EDD0E088818F77888388818068888339
:100C400088818F7D8883E7EDF0E0808180688083F4
:100C500019BC10921C011092180110921A011092E6
:100C6000190100EE10E0F80180818B7F808388817C
:100C70008160888342E060E080E0BADEE1EEF0E08F
:100C800080818E7F8083E2EEF0E0808181608083CE
:100C9000808188608083F80180818E7F8083888155
:100CA00080618883DF91CF911F910F910895E8EDC6
:100CB000F0E080818F7E8083E7EDF0E080818160CD
:100CC000808381E080931B01ADCF0895E8EDF0E0D3
:100CD00080818C7F80831092E20008951092DA0068
:100CE0001092E10008951F920F920FB60F921124F7
:100CF0000BB60F922F933F934F935F936F937F9316
:100D00008F939F93AF93BF93EF93FF938091E100F5
:100D100082FF0AC08091E20082FF06C0E1EEF0E0AF
:100D200080818B7F80838FD28091DA0080FF1DC00D
:100D30008091D80080FF19C0EAEDF0E080818E7FBD
:100D400080838091D90080FF0CC084E189BD86E159
:100D500089BD09B400FEFDCF81E080931C0149D21A
:100D600004C019BC10921C014CD28091E10080FF9C
:100D700016C08091E20080FF12C0E2EEF0E08081B8
:100D80008E7F8083808180618083E8EDF0E08081C8
:100D90008062808319BC85E080931C01E0D1809142
:100DA000E10084FF2FC08091E20084FF2BC084E12A
:100DB00089BD86E189BD09B400FEFDCFE8EDF0E014
:100DC00080818F7D8083E1EEF0E080818F7E808363
:100DD000E2EEF0E080818F7E80838081816080837D
:100DE00080911801882321F084E080931C0109C0C0
:100DF0008091E300882314F081E001C083E08093B8
:100E00001C01ADD18091E10083FF1EC08091E20002
:100E100083FF1AC0E1EEF0E08081877F808382E06B
:100E200080931C011092180180818E7F8083E2EEF6
:100E3000F0E080818E7F808380818061808342E0CA
:100E400060E080E0D5DD8BD1FF91EF91BF91AF9154
:100E50009F918F917F916F915F914F913F912F91D2
:100E60000F900BBE0F900FBE0F901F9018950F9311
:100E70001F93CF93DF93CDB7DEB7AA970FB6F89441
:100E8000DEBF0FBECDBFEDE1F1E025E231E0A1EF25
:100E9000B0E08C9181932E173F07D9F7CFD1809185
:100EA000E80083FF37C1EDE1F1E090818181853079
:100EB00009F47FC030F48130C9F168F08330B1F1BA
:100EC00029C1883009F4F1C0893009F4FEC08630A8
:100ED00009F020C191C0903821F0923809F01AC170
:100EE00008C08091190190911A01992389F08260BC
:100EF0000FC0809121018F70873008F00BC1E9EE9F
:100F0000F0E080838091EB0085FB882780F91082D8
:100F1000E8EEF0E09081977F9083A1EFB0E08C93B2
:100F20001C9280818E77808318DEF4C0992309F4A7
:100F300000C1923009F0EEC001C191E0833009F0A8
:100F400090E090931A012CC0809121018F709FEF47
:100F5000980F963008F0DEC08093E9009091EB0086
:100F600090FF1EC090911E01933031F4EBEEF0E043
:100F700080818062808314C0EBEEF0E0908190610C
:100F8000908321E030E0A90102C0440F551F8A95EB
:100F9000E2F7AAEEB0E04C931C92808188608083D7
:100FA0001092E900E8EEF0E08081877F8083D5DD54
:100FB000B1C09111AFC010911F011F77E3EEF0E0B7
:100FC00080818078812B8083E8EEF0E08081877FCC
:100FD0008083C3DDE8EEF0E0808180FFFDCFE3EEAB
:100FE000F0E0808180688083111102C082E001C03E
:100FF00083E080931C018EC09058923008F08AC024
:1010000080911F01909120018C3D53E0950799F547
:1010100083E08A838AE289835FB7F894DE011396BE
:1010200020E03EE041E2E32FF0E04093570084915E
:1010300020FF03C082958F703F5F8F708A3018F059
:1010400090E0C79602C090E0C0968D939D932F5F6D
:10105000243149F75FBF08EE10E0F8018081877FF7
:1010600080836AE270E0CE0101965ADBF80180814C
:101070008B7780834FC06091210170912201AE0176
:101080004F5F5F4F86D8BC01892B09F443C008EE3F
:1010900010E0F8019081977F908389819A8128DC04
:1010A000F80180818B77808335C0903899F5E8EE20
:1010B000F0E08081877F8083809118018093F10028
:1010C00080818E77808349DD25C0911123C0809176
:1010D0001F019091200199270297E4F4E8EEF0E0D7
:1010E0008081877F808380911F018093180135DD87
:1010F00080911801882321F084E080931C0109C0AD
:101100008091E300882314F081E001C084E08093A3
:101110001C017DD08091E80083FF16C0E8EEF0E06E
:101120008081877F8083EBEEF0E080818062808326
:101130000BC090911F01913069F7FFCE80911F0184
:10114000882309F401CF2CCFAA960FB6F894DEBFFE
:101150000FBECDBFDF91CF911F910F9108950895DC
:10116000CF9380911C01882399F0C091E900CF7042
:101170008091EC00982F917080FD90E8C92B10921F
:10118000E9008091E80083FD72DECF70C093E90032
:10119000CF91089584B7877F84BF0FB6F894A89540
:1011A00080916000886180936000109260000FBEA3
:1011B000E1E6F0E080E880831082279A87B18066BC
:1011C00087B92F9A88B1806688B98AB18D768AB935
:1011D0008BB182698BB96BCD0895DCDF2F9888B114
:1011E00080668F7788B9789480E091E07FD9B8DF06
:1011F000FBCF85B18F7385B988B180668F7388B94D
:1012000008952F9888B180668F7788B9089580E017
:1012100091E058D9E2EEF0E09081946090838111E2
:1012200002C080EA01C080E495B18095906898235F
:1012300095B998B19066892388B9089580E091E0C6
:101240000C941801089580910E0190910F01009760
:1012500029F0019790930F0180930E0108950F9349
:101260001F9389B18095482F427981FF05C094E092
:10127000F901928391E001C090E084FF06C0F9017A
:10128000E90FF11D85E082839F5F442334F4F90167
:10129000E90FF11D86E082839F5F992319F082E0B8
:1012A000F901808388E090E0F8019183808380E0F9
:1012B0001F910F910895F901908190FF02C080E87D
:1012C00001C080E091FD806492FD806295B18095BF
:1012D0009068982395B998B19066892388B9089544
:1012E000FB01DC0104C08D910190801921F4415073
:1012F0005040C8F7881B990B0895FB01DC0102C020
:1013000001900D9241505040D8F70895DC0101C082
:0E1310006D9341505040E0F70895F894FFCFE0
:10131E00008108000001100108000000000000001C
:00000001FF
